:100000000C942A000C9447000C9447000C94470071
:100010000C9447000C9447000C9447000C94470044
:100020000C9447000C9447000C9447000C94470034
:100030000C9447000C9447000C9447000C94470024
:100040000C9447000C9447000C9447000C94470014
:100050000C94470011241FBECFE5D4E0DEBFCDBF16
:1000600010E0A0E6B0E0ECE1F1E102C005900D92F5
:10007000A437B107D9F710E0A4E7B0E001C01D92A2
:10008000A437B107E1F70E94FA030C948C080C9492
:1000900000003E9A379A329A319A0895369A349BE4
:1000A000FECF349A84B190E045B1342F20E0822B0A
:1000B000932B0895823451F1833420F4813409F074
:1000C0007BC007C0833409F43EC0843409F074C097
:1000D00057C0413069F42AB381E090E0AC0102C01E
:1000E000440F551F6A95E2F7BA01622B6ABB089567
:1000F0002AB381E090E0AC0102C0440F551F6A951D
:10010000E2F7BA01609562236ABB0895413069F451
:1001100027B381E090E0AC0102C0440F551F6A95FF
:10012000E2F7BA01622B67BB089527B381E090E044
:10013000AC0102C0440F551F6A95E2F7BA01609501
:10014000622367BB0895413069F424B381E090E0F5
:10015000AC0102C0440F551F6A95E2F7BA01622B49
:1001600064BB089524B381E090E0AC0102C0440F69
:10017000551F6A95E2F7BA016095622364BB089542
:10018000413069F421B381E090E0AC0102C0440F3A
:10019000551F6A95E2F7BA01622B61BB089521B33E
:1001A00081E090E0AC0102C0440F551F6A95E2F770
:1001B000BA016095622361BB0895823451F18334A2
:1001C00020F4813409F07BC007C0833409F43EC0B9
:1001D000843409F074C057C0413069F42BB381E016
:1001E00090E0AC0102C0440F551F6A95E2F7BA01D6
:1001F000622B6BBB08952BB381E090E0AC0102C091
:10020000440F551F6A95E2F7BA01609562236BBBF4
:100210000895413069F428B381E090E0AC0102C058
:10022000440F551F6A95E2F7BA01622B68BB089527
:1002300028B381E090E0AC0102C0440F551F6A95DD
:10024000E2F7BA016095622368BB0895413069F412
:1002500025B381E090E0AC0102C0440F551F6A95C0
:10026000E2F7BA01622B65BB089525B381E090E007
:10027000AC0102C0440F551F6A95E2F7BA016095C0
:10028000622365BB0895413069F422B381E090E0B8
:10029000AC0102C0440F551F6A95E2F7BA01622B08
:1002A00062BB089522B381E090E0AC0102C0440F2C
:1002B000551F6A95E2F7BA016095622362BB089503
:1002C0008234F1F0833420F4813409F04FC006C049
:1002D000833441F1843409F049C036C029B381E048
:1002E00090E0062E02C0880F991F0A94E2F730E0D2
:1002F0008223932302C0959587956A95E2F7089526
:1003000026B381E090E0062E02C0880F991F0A9460
:10031000E2F730E08223932302C0959587956A9592
:10032000E2F7089523B381E090E0062E02C0880F23
:10033000991F0A94E2F730E08223932302C0959537
:1003400087956A95E2F7089520B381E090E0062E44
:1003500002C0880F991F0A94E2F730E082239323AA
:1003600002C0959587956A95E2F7089580E0089513
:100370008234B9F0833418F48134C9F505C083346C
:10038000E9F08434A1F527C02BB381E090E0AC0103
:1003900002C0440F551F6A95E2F7BA0162276BBB92
:1003A000089528B381E090E0AC0102C0440F551FCE
:1003B0006A95E2F7BA01622768BB089525B381E028
:1003C00090E0AC0102C0440F551F6A95E2F7BA01F4
:1003D000622765BB089522B381E090E0AC0102C0C2
:1003E000440F551F6A95E2F7BA01622762BB089570
:1003F000823461F0833418F4813469F405C08334A5
:1004000039F0843441F406C06ABB089567BB08958F
:1004100064BB089561BB0895823461F0833418F49D
:10042000813469F405C0833439F0843441F406C062
:100430006BBB089568BB089565BB089562BB0895C2
:10044000823461F0833418F4813471F405C083344C
:1004500039F0843449F406C089B3089586B3089509
:1004600083B3089580B3089580E00895823451F1F4
:10047000833420F4813409F07BC007C0833409F44D
:100480003EC0843409F074C057C0413069F42BB3C6
:1004900081E090E0AC0102C0440F551F6A95E2F77D
:1004A000BA01622B6BBB08952BB381E090E0AC01E5
:1004B00002C0440F551F6A95E2F7BA0160956223A6
:1004C0006BBB0895413069F428B381E090E0AC0142
:1004D00002C0440F551F6A95E2F7BA01622B68BB50
:1004E000089528B381E090E0AC0102C0440F551F8D
:1004F0006A95E2F7BA016095622368BB08954130BE
:1005000069F425B381E090E0AC0102C0440F551FAF
:100510006A95E2F7BA01622B65BB089525B381E0C5
:1005200090E0AC0102C0440F551F6A95E2F7BA0192
:100530006095622365BB0895413069F422B381E080
:1005400090E0AC0102C0440F551F6A95E2F7BA0172
:10055000622B62BB089522B381E090E0AC0102C03F
:10056000440F551F6A95E2F7BA016095622362BB9A
:1005700008956F70823481F0833418F48134F1F47B
:1005800005C0833479F08434C9F412C08BB3807F02
:100590008BBB8BB3862B8BBB88B3807F88BB88B328
:1005A000862B88BB85B3807F85BB85B3862B85BBB7
:1005B00082B3807F82BB82B3682B62BB0895629551
:1005C000607F823481F0833418F48134F1F405C003
:1005D000833479F08434C9F412C08BB38F708BBB31
:1005E0008BB3862B8BBB88B38F7088BB88B3862B6D
:1005F00088BB85B38F7085BB85B3862B85BB82B3E3
:100600008F7082BB82B3682B62BB089582E460E086
:1006100041E00E94DD008FE99FE00197F1F700C003
:10062000000082E460E040E00E94DD008FE99FE08E
:100630000197F1F700C000000895CF93C82F682FED
:1006400062956F7084E40E94DF0282E461E040E022
:100650000E94DD000E94060384E46C2F0E94DF02EA
:1006600082E461E040E00E94DD000E9406038FEC1E
:1006700097E00197F1F700C00000CF9108958FEF48
:1006800091EEA4E081509040A040E1F700C000004E
:1006900084E464E041E00E945A0084E465E041E0C3
:1006A0000E945A0084E466E041E00E945A0084E41B
:1006B00067E041E00E945A0082E460E041E00E946D
:1006C0005A0082E462E041E00E945A0082E461E064
:1006D00041E00E945A0082E462E040E00E94DD00B6
:1006E00082E00E941D03AFE1BEE41197F1F700C064
:1006F000000088E20E941D038FEC97E00197F1F75C
:1007000000C000008CE00E941D03AFECB7E0119721
:10071000F1F700C0000081E00E941D038FE19EE41C
:100720000197F1F700C0000086E00E941D03AFECC6
:10073000B7E01197F1F700C000000895CF93C82FDC
:10074000682F62956F7084E40E94DF0282E461E0AA
:1007500041E00E94DD000E94060384E46C2F0E94A9
:10076000DF0282E461E041E00E94DD000E940603B6
:100770008FEC97E00197F1F700C00000CF9108954A
:10078000CF93DF93EC018881882331F021960E947A
:100790009E0389918823D9F7DF91CF91089581E055
:1007A0000E941D038FE19EE40197F1F700C0000055
:1007B0000895282F2150223070F4613170F466239F
:1007C00071F0813019F4962F91580AC0823041F4AB
:1007D000962F915405C090E803C090E801C090E8BE
:1007E000892F0E941D038FEC97E00197F1F700C05D
:1007F000000008958FEF84BB0E9449000E943F03D0
:1008000080E690E00E94C00382E061E00E94D9038C
:1008100081E790E00E94C0030F2EFAE04F2EF0E037
:100820005F2EF0E06F2EF0E07F2EF02D0E944E0044
:10083000BC0180E090E00E945E0728E638EE4FE9B8
:100840005BE30E94EC07D62FC72F082FC92E862FF7
:100850009C2FA02FBC2DBC01CD0120E030E44CE149
:1008600056E40E94EC074B015C0160E070E080EA16
:1008700090E4502F0D2F1C2F252F3C2DA9019801FE
:100880000E9460069B01AC01C501B4010E94C5062F
:100890000E942D07C62ED72EE82EF92E8AE0C81604
:1008A000D104E104F104C4F482E064E00E94D903BD
:1008B0008C2D805D0E949E038EE20E949E0380E349
:1008C0000E949E0380E30E949E0380E20E949E039A
:1008D00084EF0E949E03AACF84E6C816D104E104E7
:1008E000F1041CF582E064E00E94D903C701B6015F
:1008F000A30192010E944F08C62F822F805D0E94A3
:100900009E038C2F805D0E949E038EE20E949E03B8
:1009100080E30E949E0380E30E949E0380E20E9487
:100920009E0384EF0E949E0381CF88EEC81683E069
:10093000D80680E0E80680E0F806B4F582E064E0DE
:100940000E94D903C701B60124E630E040E050E040
:100950000E944F084B015C01822F805D0E949E0324
:10096000C501B401A30192010E944F08822F805D4E
:100970000E949E03C701B601A30192010E944F0885
:10098000862F805D0E949E038EE20E949E0380E37C
:100990000E949E0380E30E949E0380E20E949E03C9
:1009A00084EF0E949E0342CF80E1C81687E2D806FA
:1009B00080E0E80680E0F8060CF044C082E064E0E5
:1009C0000E94D903C701B60128EE33E040E050E0B1
:1009D0000E944F084B015C01822F805D0E949E03A4
:1009E000C501B40124E630E040E050E00E944F0829
:1009F0004B015C01822F805D0E949E03C501B40102
:100A0000A30192010E944F08822F805D0E949E03E5
:100A1000C701B601A30192010E944F08862F805D95
:100A20000E949E038EE20E949E0380E30E949E032A
:100A300080E30E949E0380E20E949E0384EF0E9456
:100A40009E03F4CE80EAC81686E8D80681E0E80660
:100A500080E0F8060CF052C082E064E00E94D90306
:100A6000C701B60120E137E240E050E00E944F08A4
:100A70004B015C01822F805D0E949E03C501B40181
:100A800028EE33E040E050E00E944F084B015C014B
:100A9000822F805D0E949E03C501B40124E630E0F0
:100AA00040E050E00E944F084B015C01822F805DC6
:100AB0000E949E03C501B401A30192010E944F0848
:100AC000822F805D0E949E03C701B601A30192019F
:100AD0000E944F08862F805D0E949E038EE20E9436
:100AE0009E0380E30E949E0380E30E949E0380E2B7
:100AF0000E949E0384EF0E949E0398CE80E4C81655
:100B000082E4D8068FE0E80680E0F8060CF060C0CA
:100B100082E064E00E94D903C701B60120EA36E80A
:100B200041E050E00E944F084B015C01822F805D44
:100B30000E949E03C501B40120E137E240E050E08D
:100B40000E944F084B015C01822F805D0E949E0332
:100B5000C501B40128EE33E040E050E00E944F08A8
:100B60004B015C01822F805D0E949E03C501B40190
:100B700024E630E040E050E00E944F084B015C0169
:100B8000822F805D0E949E03C501B401A3019201E2
:100B90000E944F08822F805D0E949E03C701B6010C
:100BA000A30192010E944F08862F805D0E949E0340
:100BB0008EE20E949E0380E30E949E0380E30E94D7
:100BC0009E0380E20E949E0384EF0E949E032ECE2D
:100BD00080E8C81686E9D80688E9E80680E0F806C5
:100BE0000CF024CE82E064E00E94D903C701B60174
:100BF00020E432E44FE050E00E944F084B015C01DA
:100C0000822F805D0E949E03C501B40120EA36E870
:100C100041E050E00E944F084B015C01822F805D53
:100C20000E949E03C501B40120E137E240E050E09C
:100C30000E944F084B015C01822F805D0E949E0341
:100C4000C501B40128EE33E040E050E00E944F08B7
:100C50004B015C01822F805D0E949E03C501B4019F
:100C600024E630E040E050E00E944F084B015C0178
:100C7000822F805D0E949E03C501B401A3019201F1
:100C80000E944F08822F805D0E949E03C701B6011B
:100C9000A30192010E944F08862F805D0E949E034F
:100CA0008EE20E949E0380E30E949E0380E30E94E6
:100CB0009E0380E20E949E0384EF0E949E03B6CDB5
:100CC0005058BB27AA270ED04DC13ED130F043D19A
:100CD00020F031F49F3F11F41EF433C10EF4E0957F
:100CE000E7FB29C1E92F4FD180F3BA1762077307D9
:100CF0008407950718F071F49EF567C10EF4E0952E
:100D00000B2EBA2FA02D0B01B90190010C01CA01C5
:100D1000A0011124FF27591B99F0593F50F4503E70
:100D200068F11A16F040A22F232F342F4427585F62
:100D3000F3CF469537952795A795F0405395C9F77A
:100D40007EF41F16BA0B620B730B840BBAF0915032
:100D5000A1F0FF0FBB1F661F771F881FC2F70EC0D1
:100D6000BA0F621F731F841F48F4879577956795A4
:100D7000B795F7959E3F08F0B3CF9395880F08F08D
:100D80009927EE0F9795879508950CD0EBC0E3D087
:100D900040F0DAD030F021F45F3F19F0CCC05111AF
:100DA00015C1CFC0F0D098F39923C9F35523B1F3FF
:100DB000951B550BBB27AA2762177307840738F0CA
:100DC0009F5F5F4F220F331F441FAA1FA9F333D029
:100DD0000E2E3AF0E0E830D091505040E695001CDD
:100DE000CAF729D0FE2F27D0660F771F881FBB1F99
:100DF000261737074807AB07B0E809F0BB0B802D73
:100E0000BF01FF2793585F4F2AF09E3F510568F0BE
:100E100092C0DCC05F3FECF3983EDCF3869577959B
:100E20006795B795F7959F5FC9F7880F911D9695C0
:100E3000879597F90895E1E0660F771F881FBB1F1C
:100E4000621773078407BA0720F0621B730B840BC9
:100E5000BA0BEE1F88F7E095089504D06894B1119D
:100E6000B5C0089598D088F09F5790F0B92F992772
:100E7000B751A0F0D1F0660F771F881F991F1AF0A5
:100E8000BA95C9F712C0B13081F09FD0B1E0089592
:100E90009CC0672F782F8827B85F39F0B93FCCF313
:100EA000869577956795B395D9F73EF4909580959B
:100EB000709561957F4F8F4F9F4F0895E89409C0BB
:100EC00097FB3EF490958095709561957F4F8F4F7D
:100ED0009F4F9923A9F0F92F96E9BB279395F69593
:100EE000879577956795B795F111F8CFFAF4BB0F11
:100EF00011F460FF1BC06F5F7F4F8F4F9F4F16C075
:100F0000882311F096E911C0772321F09EE8872FFE
:100F1000762F05C0662371F096E8862F70E060E0BA
:100F20002AF09A95660F771F881FDAF7880F969533
:100F3000879597F9089597F99F6780E870E060E0DA
:100F400008959FEF80EC089500240A941616170662
:100F500018060906089500240A94121613061406AA
:100F600005060895092E0394000C11F4882352F00D
:100F7000BB0F40F4BF2B11F460FF04C06F5F7F4FC5
:100F80008F4F9F4F089557FD9058440F551F59F0AC
:100F90005F3F71F04795880F97FB991F61F09F3F66
:100FA00079F087950895121613061406551FF2CF8F
:100FB0004695F1DF08C0161617061806991FF1CFDF
:100FC00086957105610508940895E894BB27662706
:100FD0007727CB0197F908950BD0C4CFB5DF28F060
:100FE000BADF18F0952309F0A6CFABCF1124EECFCE
:100FF000CADFA0F3959FD1F3950F50E0551F629F74
:10100000F001729FBB27F00DB11D639FAA27F00D61
:10101000B11DAA1F649F6627B00DA11D661F829F88
:101020002227B00DA11D621F739FB00DA11D621F6D
:10103000839FA00D611D221F749F3327A00D611D8A
:10104000231F849F600D211D822F762F6A2F11246C
:101050009F5750408AF0E1F088234AF0EE0FFF1FBF
:10106000BB1F661F771F881F91505040A9F79E3FF6
:10107000510570F060CFAACF5F3FECF3983EDCF3F0
:10108000869577956795B795F795E7959F5FC1F733
:10109000FE2B880F911D9695879597F9089597FBDC
:1010A000092E05260ED057FD04D014D00AD0001CFE
:1010B00038F450954095309521953F4F4F4F5F4FF5
:1010C0000895F6F790958095709561957F4F8F4FB5
:1010D0009F4F0895A1E21A2EAA1BBB1BFD010DC054
:1010E000AA1FBB1FEE1FFF1FA217B307E407F507D8
:1010F00020F0A21BB30BE40BF50B661F771F881FB4
:10110000991F1A9469F760957095809590959B0149
:0C111000AC01BD01CF010895F894FFCFA1
:10111C004469676974616C206F686D6D6574657284
:04112C0000523D0030
:00000001FF
